{
  "contractName": "Election",
  "abi": [
    {
      "inputs": [],
      "payable": false,
      "stateMutability": "nonpayable",
      "type": "constructor"
    },
    {
      "anonymous": false,
      "inputs": [
        {
          "indexed": true,
          "internalType": "uint256",
          "name": "_candidateId",
          "type": "uint256"
        }
      ],
      "name": "votedEvent",
      "type": "event"
    },
    {
      "constant": true,
      "inputs": [
        {
          "internalType": "uint256",
          "name": "",
          "type": "uint256"
        }
      ],
      "name": "candidates",
      "outputs": [
        {
          "internalType": "uint256",
          "name": "id",
          "type": "uint256"
        },
        {
          "internalType": "string",
          "name": "name",
          "type": "string"
        },
        {
          "internalType": "uint256",
          "name": "voteCount",
          "type": "uint256"
        }
      ],
      "payable": false,
      "stateMutability": "view",
      "type": "function"
    },
    {
      "constant": true,
      "inputs": [],
      "name": "candidatesCount",
      "outputs": [
        {
          "internalType": "uint256",
          "name": "",
          "type": "uint256"
        }
      ],
      "payable": false,
      "stateMutability": "view",
      "type": "function"
    },
    {
      "constant": true,
      "inputs": [],
      "name": "expiryTime",
      "outputs": [
        {
          "internalType": "uint256",
          "name": "",
          "type": "uint256"
        }
      ],
      "payable": false,
      "stateMutability": "view",
      "type": "function"
    },
    {
      "constant": true,
      "inputs": [
        {
          "internalType": "address",
          "name": "",
          "type": "address"
        }
      ],
      "name": "voters",
      "outputs": [
        {
          "internalType": "bool",
          "name": "",
          "type": "bool"
        }
      ],
      "payable": false,
      "stateMutability": "view",
      "type": "function"
    },
    {
      "constant": false,
      "inputs": [
        {
          "internalType": "uint256",
          "name": "_candidateId",
          "type": "uint256"
        }
      ],
      "name": "vote",
      "outputs": [],
      "payable": false,
      "stateMutability": "nonpayable",
      "type": "function"
    }
  ],
  "bytecode": "0x60806040526078600255600254420160035534801561001d57600080fd5b506100626040518060400160405280600b81526020017f43616e64696461746520310000000000000000000000000000000000000000008152506100ab60201b60201c565b6100a66040518060400160405280600b81526020017f43616e64696461746520320000000000000000000000000000000000000000008152506100ab60201b60201c565b6101cb565b6004600081548092919060010191905055506040518060600160405280600454815260200182815260200160008152506000806004548152602001908152602001600020600082015181600001556020820151816001019080519060200190610115929190610126565b506040820151816002015590505050565b828054600181600116156101000203166002900490600052602060002090601f016020900481019282601f1061016757805160ff1916838001178555610195565b82800160010185558215610195579182015b82811115610194578251825591602001919060010190610179565b5b5090506101a291906101a6565b5090565b6101c891905b808211156101c45760008160009055506001016101ac565b5090565b90565b610418806101da6000396000f3fe608060405234801561001057600080fd5b50600436106100575760003560e01c80630121b93f1461005c5780632d35a8a21461008a5780633477ee2e146100a857806399bc0aea1461015d578063a3ec138d1461017b575b600080fd5b6100886004803603602081101561007257600080fd5b81019080803590602001909291905050506101d7565b005b6100926102f5565b6040518082815260200191505060405180910390f35b6100d4600480360360208110156100be57600080fd5b81019080803590602001909291905050506102fb565b6040518084815260200180602001838152602001828103825284818151815260200191508051906020019080838360005b83811015610120578082015181840152602081019050610105565b50505050905090810190601f16801561014d5780820380516001836020036101000a031916815260200191505b5094505050505060405180910390f35b6101656103bd565b6040518082815260200191505060405180910390f35b6101bd6004803603602081101561019157600080fd5b81019080803573ffffffffffffffffffffffffffffffffffffffff1690602001909291905050506103c3565b604051808215151515815260200191505060405180910390f35b600160003373ffffffffffffffffffffffffffffffffffffffff1673ffffffffffffffffffffffffffffffffffffffff16815260200190815260200160002060009054906101000a900460ff161561022e57600080fd5b60008111801561024057506004548111155b61024957600080fd5b60018060003373ffffffffffffffffffffffffffffffffffffffff1673ffffffffffffffffffffffffffffffffffffffff16815260200190815260200160002060006101000a81548160ff02191690831515021790555060008082815260200190815260200160002060020160008154809291906001019190505550807ffff3c900d938d21d0990d786e819f29b8d05c1ef587b462b939609625b684b1660405160405180910390a250565b60045481565b6000602052806000526040600020600091509050806000015490806001018054600181600116156101000203166002900480601f0160208091040260200160405190810160405280929190818152602001828054600181600116156101000203166002900480156103ad5780601f10610382576101008083540402835291602001916103ad565b820191906000526020600020905b81548152906001019060200180831161039057829003601f168201915b5050505050908060020154905083565b60035481565b60016020528060005260406000206000915054906101000a900460ff168156fea265627a7a72315820d3b125d916855ab82e006d094053ddb99d2a1c1dabf650aad75dc316e622f99664736f6c634300050c0032",
  "source": "pragma solidity ^0.5;\n\ncontract Election{\n\t\n\tstruct Candidate{\n\t\tuint id;\n\t\tstring name;\n\t\tuint voteCount;\n\t}\n\tmapping(uint=> Candidate) public candidates;\n\tmapping(address => bool) public voters;\n\t//set the duration for which the election is valid\n\t//use format -- a days + b months + c hours + d minutes + e seconds\n\tuint private duration = 2 minutes;\n\n\t//total time for which election is valid\n\tuint public expiryTime = now + duration;\n\tuint public candidatesCount;\n\t\n\tevent votedEvent(\n\t\tuint indexed _candidateId\n\t);\n\n\tconstructor() public{\n\t\taddCandidate(\"Candidate 1\");\n\t\taddCandidate(\"Candidate 2\");\n\t}\n\n\tfunction addCandidate(string memory _name ) private{\n\t\tcandidatesCount ++;\n\t\tcandidates[candidatesCount] = Candidate(candidatesCount, _name, 0);\n\t}\n\n\tfunction vote(uint _candidateId) public {\n\t\t\n\t\trequire(!voters[msg.sender]);\n\t\t\n\t\trequire(_candidateId>0 && _candidateId<=candidatesCount);\n\n\t\tvoters[msg.sender] = true;\n\n\t\tcandidates[_candidateId].voteCount ++;\n\n\t\temit votedEvent(_candidateId);\n\n\t}\n}",
  "sourcePath": "/home/krishna/Documents/blockchain/project/election/contracts/Election.sol",
  "compiler": {
    "name": "solc",
    "version": "0.5.12+commit.7709ece9.Emscripten.clang"
  },
  "schemaVersion": "3.0.20",
  "updatedAt": "2020-01-12T18:24:08.031Z",
  "networkType": "ethereum",
  "devdoc": {
    "methods": {}
  },
  "userdoc": {
    "methods": {}
  }
}